:020000040000FA
:1000000070050020D5000000FB000000FD0000008E
:1000100000000000000000000000000000000000E0
:10002000000000000000000000000000FF000000D1
:1000300000000000000000000101000003010000BA
:10004000450200004D0800006D0200008D02000016
:10005000AD020000E1020000F1030000F504000021
:100060007D060000D106000025070000B90700004A
:100070000D0800002D080000210600004D060000BC
:1000800005010000050100007903000005010000E2
:100090000501000005010000050100000501000048
:1000A0000501000005010000050100000501000038
:1000B000F9050000A901000005010000050100008C
:1000C0000348854600F05EF8004800479F0800009E
:1000D000700500200C480D4901600D4901600D4973
:1000E00001600D4A0D4911600D4A0E491160002151
:1000F00001600D4880470D480047FEE7FEE7FEE738
:10010000FEE7FEE7FEE70000000100505900000096
:10011000160000008800000024000050A55A0000CE
:10012000800300501F00000079060000C10000009D
:1001300030B50B46014600202022012409E00D467F
:10014000D5409D4205D31D469540491B2546954007
:1001500040191546521E002DF1DC30BD70B500244B
:100160002546002801DA01244042002901DA012550
:100170004942FFF7DDFFAC4200D04042002C00D0E6
:10018000494270BD064C0125064E05E02046E36855
:1001900007C82B4398471034B442F7D3FFF794FFB6
:1001A000E40800000409000010B52148006BC007F6
:1001B000C00F01280FD11F480068002804D01E4935
:1001C00008681C49096888471948006BC008C000C6
:1001D000401C174908631648006B8007C00F0128B0
:1001E0000FD116480068002804D013494868134905
:1001F000096888470E48006BC008C000801C0C4985
:1002000008630B48006B4007C00F01280FD10C4852
:100210000068002804D008498868094909688847A7
:100220000348006BC008C000001D0149086310BDF1
:1002300000000E4014000020A8000020180000203C
:100240001C00002010B5052000078069102188439C
:10025000103005210907886103480068002802D092
:1002600001480068804710BD3000002010B5042010
:100270000449086204480068002802D00248006867
:10028000804710BDC04000502800002010B5082055
:100290000449086204480068002802D00248006847
:1002A000804710BDC04000502C00002070B50A48A7
:1002B000046A09484030056A07480462064840302D
:1002C000056206480068002804D029462046034AF3
:1002D0001268904770BD00000040005020000020D0
:1002E00070B50F48056A0E484030046A0C488030EB
:1002F000066A0C21204688430446094805620848DE
:1003000040300462064880300662064800680028D3
:1003100005D0324621462846024B1B68984770BDDF
:100320008040005024000020F8B505460E461746D0
:10033000002000900F4801680068401C0D4A1060C2
:1003400088002F5010460068B04211D1002011469D
:100350000860002405E0A0002958009808180090C3
:10036000641CB442F7DB31460098FFF7F7FEF8BD96
:1003700000BFFCE70800002010B51B48C4684069B6
:10038000C007C00F0FD01848406940084000401C0B
:10039000154948611548C068002824D01348C16831
:1003A000204688471FE0002C0AD0382C11D10F4876
:1003B0004068002803D00D4841682046884711E076
:1003C0000A488068002803D008488168204688478A
:1003D00008E006480068002803D004480168204669
:1003E000884700BF00BF10BD00000240B4000020DD
:1003F00070B53C484468E007C00F09D00120394976
:10040000486039480068002802D0374908688047AA
:100410000220044208D033494860334880680028ED
:1004200002D03149886880470420044208D02D4911
:1004300048602D480069002802D02B490869804790
:100440000820044208D027494860274880690028CE
:1004500002D02549886980472248056946691020ED
:1004600005420CD01F480069204908401D49086119
:100470001D484068002802D01B4948688047012079
:10048000000505420CD01748006919490840154974
:1004900008611548C068002802D01349C868804721
:1004A000102006420CD00F484069104908400D4901
:1004B00048610D484069002802D00B4948698047CF
:1004C0000120000506420CD0064840690849084052
:1004D000044948610448C069002802D00249C8693B
:1004E000804770BD40000440C40000201F000F0082
:1004F0000F001F0070B53C484468E007C00F09D0EA
:1005000001203949486039480068002802D037493D
:10051000086880470220044208D0334948603348C5
:100520008068002802D0314988688047042004424E
:1005300008D02D4948602D480069002802D02B4979
:10054000086980470820044208D0274948602748A6
:100550008069002802D025498869804722480569BA
:100560004669102005420CD01F4800692049084008
:100570001D4908611D484068002802D01B49486891
:1005800080470120000505420CD017480069194931
:100590000840154908611548C068002802D0134971
:1005A000C8688047102006420CD00F4840691049A7
:1005B00008400D4948610D484069002802D00B49A8
:1005C000486980470120000506420CD00648406972
:1005D00008490840044948610448C069002802D01D
:1005E0000249C869804770BD40001440E400002003
:1005F0001F000F000F001F0010B5074800684021C2
:10060000884340300449086004480068002802D04C
:1006100002480068804710BD0002005034000020EE
:1006200010B50848006801210904884340180549AD
:10063000086005484068002803D0034A9068516864
:10064000884710BD000003400401002010B5084891
:1006500000680121090488434018054908600548DD
:100660000069002803D0034A50691169884710BD0A
:1006700000400340040100207047000010B51148FD
:10068000806840084000401C0E4988600E480068A1
:10069000401C0D4908600D480068002810D00B4828
:1006A0008068401E0949886008468068002807D194
:1006B0000A461069D1688847044840680349886041
:1006C00010BD000000000140680000201C01002057
:1006D00010B51148806A40084000401C0E498862ED
:1006E0000E480068401C0D4908600D48006800284D
:1006F00010D00B488068401E094988600846806811
:10070000002807D10A461069D16888470448406824
:100710000349886010BD0000000001406C0000200B
:100720003001002010B52048806840084000401C7F
:100730001D4988601D480068401C1C4908601C4811
:10074000006800282FD000242BE0142060431949B2
:100750000858002824D01420604340188068401EA8
:1007600014216143134A891888601420604311469C
:1007700040188068002813D1142262430B46D21817
:10078000106914226243D218D1688847142060434C
:1007900008494018416814206043064A8018816067
:1007A000641C012CD1DB10BD000011407000002042
:1007B000600000204401002010B51148806A400804
:1007C0004000401C0E4988620E480068401C0D49DC
:1007D00008600D480068002810D00B488068401E53
:1007E0000949886008468068002807D10A461069D0
:1007F000D1688847044840680349886010BD0000FC
:1008000000001140740000205801002010B5054878
:10081000C46905480068002803D0204602490968D9
:10082000884710BD00000540A000002010B5054815
:10083000C46905480068002803D0204602490968B9
:10084000884710BD00001540A400002010B50A48DC
:1008500000688006C40F08480068082188430830F3
:100860000549086005480068002803D02046034970
:100870000968884710BD0000004000409C0000202F
:1008800002E008C8121F08C1002AFAD17047704759
:10089000002001E001C1121F002AFBD17047B6B051
:1008A00001216846017102214171032181710179A1
:1008B00040790918684680790C18E443641CE4B256
:1008C0002646701CC6B20BE001273F033A460A21B8
:1008D00004A8FFF729FD85B220A8058604860686B0
:1008E000F2E700000409000000000020A80000005A
:1008F00080080000AC090000A8000020C804000027
:10090000900800000000000088880000000000003F
:1009100000000000000000000000000000000000D7
:1009200000000000000000000000000000000000C7
:1009300000000000000000000000000000000000B7
:1009400000000000000000000000000000000000A7
:100950000000000000000000000000000000000097
:100960000000000000000000000000000000000087
:100970000000000000000000000000000000000077
:10098000000000000000000000000000001BB70095
:100990000000000000000000000000000000000057
:0C09A0000000000000000000000000004B
:04000005000000D522
:00000001FF
